:020000040800F2
:10000000041000201D02000811020008110200085F
:1000100011020008110200081102000880B400AFAC
:1000200040F60C03C4F2010340F60C02C4F20102D4
:10003000126842F400521A60BD4680BC704700BF8F
:1000400080B483B000AF0346FB71FB79012B0CD168
:1000500040F60C03C4F2010340F60C02C4F20102A4
:10006000126822F400521A600EE0FB79002B0BD1CB
:1000700040F60C03C4F2010340F60C02C4F2010284
:10008000126842F400521A6007F10C07BD4680BCAA
:10009000704700BF80B582B000AF78607B68132BDB
:1000A0001CD940F20003C2F200031B78002B15D1CB
:1000B0004FF00100FFF7C4FF4FF41F50C0F20900DA
:1000C00000F01EF84FF00000FFF7BAFF40F2000307
:1000D000C2F200034FF001021A700DE07B68132B8F
:1000E0000AD84FF00000FFF7ABFF40F20003C2F266
:1000F00000034FF000021A7007F10807BD4680BDEB
:1001000080B483B000AF786003E07B6803F1FF3315
:100110007B607B68002BF8D107F10C07BD4680BCE3
:10012000704700BF80B400AF41F21803C4F202036D
:1001300041F21802C4F20202126842F004021A608C
:100140004FF40063C4F201034FF40062C4F20102F1
:10015000126822F470021A604FF40063C4F20103C3
:100160004FF40062C4F2010212681A6040F6040300
:10017000C4F2010340F60402C4F20102126822F440
:1001800070021A6040F60403C4F2010340F6040250
:10019000C4F20102126842F400121A60BD4680BC2B
:1001A000704700BF80B582B000AFFFF7BBFF00F023
:1001B0000DF8FFF733FF07F10403184600F00EF8BF
:1001C0007B681846FFF766FFF5E700BF80B400AF15
:1001D0004FF000031846BD4680BC704780B483B022
:1001E00000AF78607B68002B02D14FF0020309E07A
:1001F00040F60803C4F201031B68DAB27B681A6098
:100200004FF00103184607F10C07BD4680BC70474C
:1002100080B500AF00F002F880BD00BF80B586B0A9
:1002200000AF40F20002C2F2000240F20003C2F24C
:100230000003D31ABB6040F2D423C0F600037B61F5
:1002400040F20003C2F200033B614FF00003FB6089
:100250004FF00003FB600FE07B691A783B691A706E
:100260003B6903F101033B617B6903F101037B619E
:10027000FB6803F10103FB60FA68BB689A42EBD3A9
:1002800040F20102C2F2000240F20003C2F2000397
:10029000D31A7B6040F20003C2F200033B614FF0CF
:1002A0000003FB600BE03B694FF000021A703B69F2
:1002B00003F101033B61FB6803F10103FB60FA6892
:1002C0007B689A42EFD3FFF76DFF07F11807BD4631
:0402D00080BD00BF2E
:0400000508000000EF
:00000001FF
